:107800007AC00000C6C00000AAC00000A8C00000E6
:10781000A6C00000A4C00000A2C00000A0C00000DC
:107820009EC000009CC000009AC0000098C00000EC
:1078300096C0000094C0000092C0000090C00000FC
:107840008EC000008CC000008AC0000088C000000C
:1078500086C0000084C0000082C0000080C000001C
:107860007EC000007CC000000600FF0901A10115D8
:107870000026FF007508850195060900B202018502
:107880000295830900B20201C00902220001010031
:1078900080320904000001030000000921010100F9
:1078A00001222100070581030800C8120110010010
:1078B000000008F72E010100010102000110034839
:1078C000004900440042006F006F0074002403452B
:1078D000004B0020004A004100500041004E0020B3
:1078E0000043004F002E002C004C00540044002E9A
:1078F00000040309040011241FBECFEFD8E0DEBF4F
:10790000CDBF14BE88E10FB6F8948093600010924A
:1079100060000FBE85E38A95F1F7000018990AC050
:1079200021E030E080E80FB6F89480936100209366
:1079300061000FBE11E0A0E0B1E0E0E2FFE702C0AD
:1079400005900D92AA30B107D9F711E0AAE0B1E095
:1079500001C01D92AA33B107E1F733D1DFC250CF86
:10796000A82FB92F80E090E041E050EA609530E028
:1079700009C02D9182279795879510F08427952728
:10798000305EC8F36F5FA8F30895EADF8D939D938F
:107990000895CF93CFB7CF93DF93C3954C9BE9F76F
:1079A0004C9B0BC04C9B09C04C9B07C04C9B05C01B
:1079B0004C9B03C04C9B01C08BC06F93C0911D01B9
:1079C000DD27CC5DDE4F2F9365E54C9B03C02F91E7
:1079D0006F91E6CF0F931F934F9320E040E15F93A9
:1079E00009B1047104FB27F93F9350E03BE039C033
:1079F000147140642F77012F5F5F1EC0406819B17A
:107A000014712F7752501FC0406409B12F77047151
:107A1000D1F15F5F00C023C0406219B12F771471AC
:107A200091F15F5F00C025C004711027515012F41E
:107A30005D5F0000115027952C3F19B1C8F61471F5
:107A40000127015027952C3FC8F64227499309B1D9
:107A5000047110274F73115027952C3FA8F64695B7
:107A6000469519B1147179F00127015027952C3FE3
:107A700098F66B5A60F3315009B1B0F600C011E0CE
:107A80001CBB002719C03B503195C31BD04011E0EF
:107A90001CBB0881033C09F10B34F9F020911B0158
:107AA0001981110F1213EDCF4A81441F093651F18C
:107AB0000D3211F0013E29F7009322013F915F91B1
:107AC0004F911F910F912F916F91CCB3C0FD65CF56
:107AD000DF91CF91CFBFCF91189520912201222322
:107AE00069F310912001112349F534304AF13093A4
:107AF000200120931C0110911D013BE0311B3093AC
:107B00001D011EC0009120010130C4F40AE54F7030
:107B1000A9F43091080134FD14C000930801C0E1BC
:107B2000D1E013C0052710E000C000000BB91AC057
:107B3000052710E0221F1DC010E021C04AE502C049
:107B400032ED432FC4E1D0E032E01AB114615C9A07
:107B50000BB11AB954E120E865E320FF05270BB902
:107B6000279517951C3FF0F66695B8F7B1F720FFFB
:107B700005270BB9279517951C3FD0F62795179524
:107B800017FF052700001C3F0BB9B0F629913A9565
:107B900019F70B7E10912101110FC651D0400BB97E
:107BA00011F010931B0111E01CBB00611AB11B7E88
:107BB000402F4B7E54E05A95F1F70BB91AB94BB9E7
:107BC0007DCF189B9BC175E37A95F1F7000081E0AA
:107BD00085BF82E085BF80916900836080936900E2
:107BE000E89A57985F9880E0EFE9FFE03197F1F766
:107BF00000C000008150C1F7579A5F9A7894409175
:107C000020013DEF340F37FD1EC180911D01ACE016
:107C1000B0E0A81BB109AC5DBE4F80911C018D3254
:107C200009F0C0C0383009F00CC183EC809310011A
:107C30008AE58093080110920F019C91892F80762C
:107C4000E1F011968C911197893061F412968C9124
:107C50001297823009F098C010920C0197FD8EC0E7
:107C60008FEF8EC0813009F08FC080E091E090935B
:107C70001F0180931E0187E088C012968C91129795
:107C80001092190111969C911197911106C01092B2
:107C90001A0129E131E082E06CC0953019F480933B
:107CA000210159C0963009F050C013969C9113974A
:107CB000913041F48BEA98E790931F0180931E0165
:107CC00082E13FC0923041F489E898E790931F0128
:107CD00080931E0182E235C09330F1F4811108C017
:107CE00081EF98E790931F0180931E0184E029C0E3
:107CF000813041F48DEC98E790931F0180931E0131
:107D000084E21FC08230E1F48DEB98E790931F016D
:107D100080931E0180E115C0913241F48BE998E710
:107D200090931F0180931E0189E00BC0923241F4B1
:107D300088E698E790931F0180931E0181E201C0BD
:107D400080E090E490930F0120C0983079F0993052
:107D500031F48093230129E131E080E00AC081E021
:107D60009A3009F080E029E131E003C023E231E0FC
:107D700081E030931F0120931E0107C016968C915D
:107D800090E890930F010BC080E017969C91179795
:107D9000911105C016969C91981708F4892F80932D
:107DA00007014FC080910F0187FF4BC080910D01EB
:107DB00090910E0120910C01211109C011968C9116
:107DC000119712969C911297149639EF340F230F46
:107DD00020930C012078ED01482F4F7799F0F8940B
:107DE0006991799141E0FC010B0140935700E895BE
:107DF00011247894AC014E5F5F4FCA01642F6F77F6
:107E000061F014C0F89443E0FC0140935700E895FA
:107E1000789407B600FCFDCFE2CFF89465E060935C
:107E20005700E895789407B600FCFDCF632F6A0FE2
:107E30006C13D2CF50930E0140930D01211110927B
:107E40000701109220018091080184FF40C08091B9
:107E500007018F3F09F43BC0C82F893008F0C8E004
:107E60008C1B809307019091100188E889278093EB
:107E70001001CC2301F120911E0140911F0180913E
:107E80000F013C2F320FA1E1B1E086FF08C0E22FC5
:107E9000F42F84918D9331963E13FBCF08C0822F2F
:107EA000942FFC0181918D93CF013E13FACFF09373
:107EB0001F01E0931E016C2F81E191E066DDCC5F34
:107EC000CC3019F08FEF80930701C093080184E153
:107ED00099B1947131F48150D9F710922101109227
:107EE0001B0118998CCE98E088E10FB6F894A895FC
:107EF000809360000FBE90936000FFCFF89481E103
:107F000080935700E8951DBA1092690081E085BF03
:107F100015BEE0910A01F0910B010995F894FFCF8D
:0A7F200001800000800000FF5A00FD
:040000030000780081
:00000001FF
