:100000000C9471000C94D2040C94AB040C94BA05BB
:100010000C9499000C9499000C9499000C949900FC
:100020000C9499000C9499000C9499000C94F90488
:100030000C9499000C9499000C9499000C949900DC
:100040000C9461040C9499000C9499000C94990000
:100050000C9499000C9499000C9499000C949900BC
:100060000C9499000C94990005A84CCDB2D44EB9CB
:100070003836A9020C50B9918688083CA6AAAA2A4B
:10008000BE000000803F00000000240027002A007E
:1000900000000000250028002B00000000002300C5
:1000A00026002900040404040404040402020202D9
:1000B000020203030303030301020408102040802B
:1000C00001020408102001020408102000000008AA
:1000D000000201000003040700000000000000000F
:1000E000E80711241FBECFEFD8E0DEBFCDBF11E07F
:1000F000A0E0B1E0E8E0F8E102C005900D92A43084
:10010000B107D9F721E0A4E0B1E001C01D92A33608
:10011000B207E1F710E0C1E7D0E004C02197FE018B
:100120000E94FC0BC037D107C9F70E94F9050C9457
:10013000020C0C940000833081F028F4813099F097
:100140008230A1F008958730A9F08830B9F084306A
:10015000D1F4809180008F7D03C0809180008F77E3
:1001600080938000089584B58F7702C084B58F7D19
:1001700084BD08958091B0008F7703C08091B00056
:100180008F7D8093B0000895CF93DF93282F30E0C8
:10019000F901E453FF4F8491F901E854FF4FD491E2
:1001A000F901EC55FF4FC491CC2391F081110E94CD
:1001B0009B00EC2FF0E0EE0FFF1FE656FF4FA591DE
:1001C000B491EC91ED2381E090E021F480E002C055
:1001D00080E090E0DF91CF9108951F93CF93DF935C
:1001E000282F30E0F901E453FF4F8491F901E854DE
:1001F000FF4FD491F901EC55FF4FC491CC23C9F0C6
:10020000162F81110E949B00EC2FF0E0EE0FFF1FD4
:10021000E057FF4FA591B4918FB7F894111105C025
:100220009C91ED2FE095E92302C0EC91ED2BEC932E
:100230008FBFDF91CF911F910895CF93DF9390E00F
:10024000FC01E854FF4F2491FC01EC55FF4F8491D1
:10025000882361F190E0880F991FFC01EA57FF4F56
:10026000C591D491FC01E057FF4FA591B491611164
:1002700009C09FB7F8948881209582238883EC91E8
:100280002E230BC0623061F49FB7F8943881822F1F
:10029000809583238883EC912E2B2C939FBF06C0DF
:1002A0008FB7F894E8812E2B28838FBFDF91CF91F1
:1002B00008958E3008F08E508770806480937C00A3
:1002C00080917A00806480937A0080917A0086FD24
:1002D000FCCF809178002091790090E0922B0895D6
:1002E0003FB7F89480910B0190910C01A0910D0102
:1002F000B0910E0126B5A89B05C02F3F19F00196BD
:10030000A11DB11D3FBFBA2FA92F982F8827820F9B
:10031000911DA11DB11DBC01CD0143E0660F771FEA
:10032000881F991F4A95D1F708958F929F92AF9297
:10033000BF92CF92DF92EF92FF926B017C010E94FD
:1003400070014B015C01C114D104E104F104F1F02E
:100350000E947001DC01CB0188199909AA09BB0927
:10036000883E9340A105B10570F321E0C21AD1087F
:10037000E108F10888EE880E83E0981EA11CB11CEC
:10038000C114D104E104F10419F7DDCFFF90EF901F
:10039000DF90CF90BF90AF909F908F900895089579
:1003A000CF92DF92EF92FF92CF93DF93EC01603216
:1003B00082E078070CF03DC077FD06C0653B710513
:1003C0002CF064EB70E002C060E070E0898128E806
:1003D00030E06901C81AD10887FDD394CC0CDD1C2C
:1003E000CC0CDD1C0D2C000CEE08FF088A8128E5E2
:1003F00032E0281B310987FD3395220F331F220F6E
:10040000331FC901330FAA0BBB0B9C01AD012C1983
:100410003D094E095F09DB010E94DF0824EB30E053
:1004200040E050E00E94B508C20ED31EE41EF51E47
:10043000B60188818C3070F5998148E850E0491BFD
:10044000510997FD5395440F551F440F551F6417CD
:10045000750784F09A8128E532E0291B310997FD60
:100460003395220F331F220F331FAB012617370797
:100470000CF4A9012FB7F89490E042505109FC0107
:10048000EE0FFF1F8E0F9F1FFC01E15FFE4F528397
:1004900041832FBFDF91CF91FF90EF90DF90CF90FE
:1004A0000895CF93DF9380915F0190916001803F29
:1004B000910524F01092600110925F01809161011A
:1004C00090916201803F910524F010926201109298
:1004D00061016091470170914801C0916101D09123
:1004E0006201C60FD71F80915F0190916001680F74
:1004F000791F81E491E00E94D001BE0184E491E083
:10050000DF91CF910C94D0011F93CF93DF93EC0137
:10051000162F88818C3008F04EC061E0812F0E9438
:100520001D018881E82FF0E09F01220F331FE20FA9
:10053000F31FE15FFE4F1F739081907C192B108396
:1005400019821A826CE00E94C10B9CE0899FB00165
:10055000112440E050E09A01260F371FF901EE0FF9
:10056000FF1F2E0F3F1FF901E15FFE4F908196FDA7
:1005700016C04F5F5F4F4C30510569F781110FC0B6
:100580001092800082E0809381001092850010928A
:100590008400B19A80916F00826080936F00E8813F
:1005A000F0E0CF01880F991FE80FF91FE15FFE4FC0
:1005B0008081806480838881DF91CF911F9108952D
:1005C000E9988FEC91E090930301809302010895E4
:1005D0002F923F924F925F926F927F928F929F9253
:1005E000AF92BF92CF92DF92EF92FF920F931F9341
:1005F000CF93DF93CDB7DEB72E970FB6F894DEBF5B
:100600000FBECDBF98878F837C836B83612C712C49
:1006100022242A9433E0332E412C512CC3016CE365
:1006200070E00E94CD0B8C018D31910521F0611499
:10063000710409F042C18090570190905801A09038
:100640005901B0905A0120E030E040EA50E4C50181
:10065000B4010E9418090E948A096B017C018091F3
:1006600053010E9459012FEF33E0281B390B032E51
:10067000000C440B550BC501B40129873A874B8701
:100680005C870E948A096C197D098E099F0929855A
:100690003A854B855C850E94B10BA20191010E94B5
:1006A000B508DA01C9018C0D9D1DAE1DBF1D9E83CD
:1006B0008D830B33110521F06114710409F048C0DA
:1006C00080905B0190905C01A0905D01B0905E0114
:1006D00020E030E040EA50E4C501B4010E9418096E
:1006E0000E948A096B017C01809155010E94590189
:1006F0002FEF33E0281B390B032E000C440B550B56
:10070000C501B40129873A874B875C870E948A0913
:100710006C197D098E099F0929853A854B855C8571
:100720000E94B10BA20191010E94B508DA01C90132
:100730008C0D9D1DAE1DBF1D9C01990F440B550BCB
:1007400060EA76E881E090E00E94B5083A83298368
:1007500080913701909138012F813885281739070A
:1007600029F008E611E00619170901C083012D815F
:100770003E81B901330F880B990B0E94C2096B01AE
:100780007C01C80168E671E00E94CD0BBC01990FA5
:10079000880B990B0E94C2092BED3FE049E450E41D
:1007A0000E944E0A20E030E044E353E40E9418091E
:1007B0000E94BB0A4B015C01C801865A9F4F68E644
:1007C00071E00E94CD0BBC01990F880B990B0E9420
:1007D000C2092BED3FE049E450E40E944E0A20E0BC
:1007E00030E044E353E40E9418090E94BB0A9B01D5
:1007F000AC010091470110914801C701B6010E9468
:100800004E0A0E948A09600F711F8B819C81681BB0
:10081000790B80916101909162019C01260F371F35
:100820003E872D87A5019401C701B6010E944E0A9B
:100830000E948A09600F711F8B819C81680F791F4C
:1008400000915F0110916001600F711F81E491E0E0
:100850000E94D0016D857E8584E491E00E94D001E4
:1008600029813A812330310530F0C901880F991F61
:1008700004970197F1F73FEF631A730A88E6681649
:1008800081E0780609F0CACE2E960FB6F894DEBF46
:100890000FBECDBFDF91CF911F910F91FF90EF90D1
:1008A000DF90CF90BF90AF909F908F907F906F9090
:1008B0005F904F903F902F900895CB9709F048CFCD
:1008C000FFCE1F920F920FB60F9211242F933F93DA
:1008D0008F939F93AF93BF938091070190910801ED
:1008E000A0910901B0910A013091060126E0230F81
:1008F0002D3720F40296A11DB11D05C029E8230F54
:100900000396A11DB11D20930601809307019093CA
:100910000801A0930901B0930A0180910B01909105
:100920000C01A0910D01B0910E010196A11DB11D08
:1009300080930B0190930C01A0930D01B0930E01D5
:10094000BF91AF919F918F913F912F910F900FBECB
:100950000F901F9018951F920F920FB60F921124AF
:100960002F933F934F935F936F937F938F939F93B7
:10097000AF93BF93EF93FF93E0910201F0910301D6
:100980000995FF91EF91BF91AF919F918F917F91C9
:100990006F915F914F913F912F910F900FBE0F90EC
:1009A0001F9018951F920F920FB60F9211242F933C
:1009B0003F934F935F936F937F938F939F93AF93E7
:1009C000BF93EF93FF93E0910001F091010109952E
:1009D000FF91EF91BF91AF919F918F917F916F9117
:1009E0005F914F913F912F910F900FBE0F901F90ED
:1009F00018951F920F920FB60F9211242F933F93C9
:100A00004F935F936F937F938F939F93AF93BF9316
:100A1000EF93FF938091050187FF05C01092850039
:100A2000109284001BC020910501022E000C330B94
:100A30008091040190E02817390784F48091050122
:100A4000082E000C990BFC01EE0FFF1F8E0F9F1F4D
:100A5000FC01E15FFE4F808186FD15C0809105019C
:100A60008F5F8093050120910501022E000C330B4E
:100A70008091040190E028173907C4F480910501A2
:100A80008C3064F113C080910501082E000C990B85
:100A9000FC01EE0FFF1F8E0F9F1FFC01E15FFE4F59
:100AA000808160E08F730E94ED00D8CF8091840038
:100AB00090918500049680329E4418F480E29EE472
:100AC00005C08091840090918500049690938900E0
:100AD000809388008FEF809305013BC020918400B4
:100AE0003091850080910501082E000C990BFC01C6
:100AF000EE0FFF1F8E0F9F1FFC01E15FFE4F8181F4
:100B00009281820F931F9093890080938800809137
:100B10000501082E000C990BFC01EE0FFF1F8E0F34
:100B20009F1FFC01E15FFE4F808186FF12C0809114
:100B30000501082E000C990BFC01EE0FFF1F8E0F14
:100B40009F1FFC01E15FFE4F808161E08F730E9477
:100B5000ED00FF91EF91BF91AF919F918F917F91A8
:100B60006F915F914F913F912F910F900FBE0F901A
:100B70001F9018951F920F920FB60F9211242F936A
:100B80003F934F935F936F937F938F939F93AF9315
:100B9000BF93EF93FF9360E085E00E941D0160E04A
:100BA00086E00E941D010FB6F894A8958091600020
:100BB000886180936000109260000FBE98E088E129
:100BC0000FB6F894A895809360000FBE90936000D4
:100BD000FF91EF91BF91AF919F918F917F916F9115
:100BE0005F914F913F912F910F900FBE0F901F90EB
:100BF0001895789484B5826084BD84B5816084BD85
:100C000085B5826085BD85B5816085BD80916E00AA
:100C1000816080936E0010928100809181008260DB
:100C20008093810080918100816080938100809118
:100C300080008160809380008091B1008460809307
:100C4000B1008091B00081608093B00080917A0003
:100C5000846080937A0080917A00826080937A0029
:100C600080917A008E7F80937A0080917A008068EC
:100C700080937A001092C1001092680081E0809306
:100C80006B0010926C0010926D008093680061E020
:100C900080914D010E941D0162E080914B010E94F4
:100CA0001D0160914F017091500181E491E00E941B
:100CB0008402609151017091520184E491E00E949C
:100CC00084020E94510268EC70E080E090E00E9493
:100CD0009501E0914101F0E0CF01880F991FE80FE5
:100CE000F91FE15FFE4F80818F7B8083E09144019B
:100CF000F0E0CF01880F991FE80FF91FE15FFE4F69
:100D000080818F7B808380914B010E94C400892B5E
:100D1000D1F5C0E0D0E080914B010E94C400892B46
:100D200009F050C0219661E070E080E090E00E9400
:100D30009501C93883E1D80774F38091330190910C
:100D4000340190934A018093490102E010E061E090
:100D500080914D010E94ED0062E370E080E090E040
:100D60000E94950160E080914D010E94ED0062E3D8
:100D700070E080E090E00E9495010130110559F289
:100D800001E010E0E4CF809135019091360190931D
:100D90004A018093490180EE92E090930301809391
:100DA000020180916900837F80936900E99A83B78B
:100DB000817F846083BF83B7816083BF889583B759
:100DC0008E7F83BF60914F017091500181E491E06B
:100DD0000E948402609151017091520184E491E07B
:100DE0000E948402EE24EA9483E0F82E44244A947C
:100DF00093E0592E612C712C28ECC22ED12C34E6B4
:100E0000832E912C8091490190914A0120913301C8
:100E1000309134018217930709F091C0C0E0D0E00F
:100E200080914B010E94C400019709F05FC080913E
:100E300053010E945901D701A81BB90B2EE130E0E4
:100E40000E94E10BA30192010E94B5082F503109C5
:100E50003093600120935F01809155010E945901F8
:100E6000D701A81BB90B2EE130E00E94E10BA301D2
:100E700092010E94B5082F503109309362012093EE
:100E800061010E94510262E070E080E090E00E9407
:100E90009501CE010196B6010E94CD0BEC0184367E
:100EA000910524F05601A81AB90A01C05C0100E0BE
:100EB00010E00A151B0544F461E080914D010E9489
:100EC000ED000F5F1F4FF5CF00E010E0C4018A195D
:100ED0009B095C010A151B050CF0A2CF60E0809114
:100EE0004D010E94ED000F5F1F4FF4CF60915F0135
:100EF000615F80E090E00E94A70860916101615FFE
:100F000081E090E00E94A708CAE0D0E061E0809113
:100F10004D010E94ED0062E370E080E090E00E94ED
:100F2000950160E080914D010E94ED0062E370E068
:100F300080E090E00E949501219741F741C0209107
:100F400035013091360182179307D1F561E0809128
:100F50004D010E94ED00C3E0D0E060913B01709133
:100F60003C0180913701909138010E94E80221975D
:100F7000A1F70E9451020E94510268EE73E080E0E6
:100F800090E00E94950160E080914D010E94ED008B
:100F9000C3E0D0E060913B0170913C018091390148
:100FA00090913A010E94E8022197A1F70E94510214
:100FB0000E94510268EE73E080E090E00E9495018B
:100FC00080E090E0892B09F41DCF0E9400001ACF29
:100FD000109234011092330181E090E09093360139
:100FE00080933501109238011092370190933A01A5
:100FF0008093390110923C0110923B018CEE9FEFDF
:1010000090933E0180933D0184E190E090934001F4
:1010100080933F01809104018C30A0F491E0980FFF
:10102000909304018093410190E0FC01EE0FFF1FBB
:101030008E0F9F1FFC01E15FFE4F8CED95E09283C8
:10104000818303C08FEF80934101809104018C3034
:10105000A0F491E0980F909304018093440190E0F4
:10106000FC01EE0FFF1F8E0F9F1FFC01E15FFE4F83
:101070008CED95E09283818303C08FEF80934401D0
:101080008AE590E090934801809347018091350173
:101090009091360190934A018093490183E090E05A
:1010A00090934C0180934B0189E090E090934E0126
:1010B00080934D0185E090E09093500180934F0123
:1010C00086E090E0909352018093510185E190E099
:1010D000909354018093530184E190E090935601E2
:1010E0008093550180E090E0A8E4B2E4809357013A
:1010F00090935801A0935901B0935A0180E090E079
:10110000A0EFB2E480935B0190935C01A0935D013A
:10111000B0935E0180E090E00E949F0890E00F97FE
:101120009093600180935F0181E090E00E949F08AE
:1011300090E00F9790936201809361010895F9996F
:10114000FECF92BD81BDF89A992780B50895262FCC
:10115000F999FECF1FBA92BD81BD20BD0FB6F8949C
:10116000FA9AF99A0FBE01960895052E97FB1EF480
:1011700000940E94CC0857FD07D00E94E70807FCA6
:1011800003D04EF40C94CC085095409530952195A1
:101190003F4F4F4F5F4F08959095809570956195A3
:1011A0007F4F8F4F9F4F08950E940909A59F900D73
:1011B000B49F900DA49F800D911D11240895B7FF39
:1011C0000C94D4080E94D408821B930B0895A1E2CA
:1011D0001A2EAA1BBB1BFD010DC0AA1FBB1FEE1FB1
:1011E000FF1FA217B307E407F50720F0A21BB30BFC
:1011F000E40BF50B661F771F881F991F1A9469F778
:1012000060957095809590959B01AC01BD01CF01D3
:101210000895A29FB001B39FC001A39F700D811DCF
:101220001124911DB29F700D811D1124911D0895EF
:101230000E942C090C94140A0E940D0A58F00E9476
:10124000060A40F029F45F3F29F00C94FD09511182
:101250000C94480A0C94030A0E94250A68F3992307
:10126000B1F3552391F3951B550BBB27AA276217A2
:101270007307840738F09F5F5F4F220F331F441FAF
:10128000AA1FA9F335D00E2E3AF0E0E832D09150E3
:101290005040E695001CCAF72BD0FE2F29D0660FD0
:1012A000771F881FBB1F261737074807AB07B0E813
:1012B00009F0BB0B802DBF01FF2793585F4F3AF019
:1012C0009E3F510578F00C94FD090C94480A5F3F4D
:1012D000E4F3983ED4F3869577956795B795F7959F
:1012E0009F5FC9F7880F911D9695879597F9089587
:1012F000E1E0660F771F881FBB1F62177307840723
:10130000BA0720F0621B730B840BBA0BEE1F88F731
:10131000E09508950E9491096894B1110C94480ACF
:1013200008950E942D0A88F09F5798F0B92F9927A9
:10133000B751B0F0E1F0660F771F881F991F1AF0C0
:10134000BA95C9F714C0B13091F00E94470AB1E0D4
:1013500008950C94470A672F782F8827B85F39F0D3
:10136000B93FCCF3869577956795B395D9F73EF459
:1013700090958095709561957F4F8F4F9F4F089501
:10138000E89409C097FB3EF490958095709561951F
:101390007F4F8F4F9F4F9923A9F0F92F96E9BB27D5
:1013A0009395F695879577956795B795F111F8CF51
:1013B000FAF4BB0F11F460FF1BC06F5F7F4F8F4FBC
:1013C0009F4F16C0882311F096E911C0772321F0B2
:1013D0009EE8872F762F05C0662371F096E8862F4A
:1013E00070E060E02AF09A95660F771F881FDAF7A1
:1013F000880F9695879597F9089597F99F6780E8E4
:1014000070E060E008959FEF80EC089500240A9456
:101410001616170618060906089500240A941216CF
:101420001306140605060895092E0394000C11F402
:10143000882352F0BB0F40F4BF2B11F460FF04C0AF
:101440006F5F7F4F8F4F9F4F089557FD9058440F08
:10145000551F59F05F3F71F04795880F97FB991F13
:1014600061F09F3F79F087950895121613061406D0
:10147000551FF2CF4695F1DF08C01616170618065D
:10148000991FF1CF86957105610508940895E89438
:10149000BB2766277727CB0197F908950E94610A39
:1014A0000C94140A0E94060A38F00E940D0A20F0DB
:1014B000952311F00C94FD090C94030A11240C944B
:1014C000480A0E94250A70F3959FC1F3950F50E0DA
:1014D000551F629FF001729FBB27F00DB11D639FE6
:1014E000AA27F00DB11DAA1F649F6627B00DA11D8C
:1014F000661F829F2227B00DA11D621F739FB00D32
:10150000A11D621F839FA00D611D221F749F3327A1
:10151000A00D611D231F849F600D211D822F762F3A
:101520006A2F11249F5750409AF0F1F088234AF017
:10153000EE0FFF1FBB1F661F771F881F9150504083
:10154000A9F79E3F510580F00C94FD090C94480AC0
:101550005F3FE4F3983ED4F3869577956795B7950A
:10156000F795E7959F5FC1F7FE2B880F911D969524
:10157000879597F908959F930E94C50A0F9007FCDD
:10158000EE5F0C94EE0A0C94030A0E942D0AD8F325
:10159000E894E0E0BB279F57F0F02AED3FE049ECEC
:1015A00006C0EE0FBB0F661F771F881F28F0B23AE8
:1015B00062077307840728F0B25A620B730B840B1F
:1015C000E3959A9572F7803830F49A95BB0F661FB1
:1015D000771F881FD2F790480C946A0BEF93E0FFB7
:1015E00007C0A2EA2AED3FE049EC5FEB0E94130B33
:1015F0000E94140A0F90039401FC9058E8E6F0E072
:101600000C94760B0E94060A38F00E940D0A20F016
:1016100039F49F3F19F426F40C94030A0EF4E09574
:10162000E7FB0C94FD09E92F0E94250A58F3BA172D
:10163000620773078407950720F079F4A6F50C94E8
:10164000470A0EF4E0950B2EBA2FA02D0B01B9011D
:1016500090010C01CA01A0011124FF27591B99F028
:10166000593F50F4503E68F11A16F040A22F232F34
:10167000342F4427585FF3CF469537952795A79584
:10168000F0405395C9F77EF41F16BA0B620B730B2B
:10169000840BBAF09150A1F0FF0FBB1F661F771F9C
:1016A000881FC2F70EC0BA0F621F731F841F48F451
:1016B000879577956795B795F7959E3F08F0B0CFDA
:1016C0009395880F08F09927EE0F979587950895C1
:1016D0009F3F31F0915020F4879577956795B795A6
:1016E000880F911D9695879597F908959F938F93ED
:1016F0007F936F93FF93EF939B01AC010E944E0A7F
:10170000EF91FF910E948A0B2F913F914F915F9132
:101710000C944E0ADF93CF931F930F93FF92EF9297
:10172000DF927B018C01689406C0DA2EEF010E94E3
:10173000610AFE01E894A591259135914591559155
:10174000A6F3EF010E94130BFE019701A801DA94A2
:1017500069F7DF90EF90FF900F911F91CF91DF918C
:101760000895DB018F939F930E94D408BF91AF919E
:10177000A29F800D911DA39F900DB29F900D1124EB
:101780000895991B79E004C0991F961708F0961BDD
:10179000881F7A95C9F78095089597FB072E16F450
:1017A000009407D077FD09D00E94E80B07FC05D014
:1017B0003EF4909581959F4F0895709561957F4F68
:1017C00008950E940909B7FF0895821B930B08959D
:1017D000AA1BBB1B51E107C0AA1FBB1FA617B70757
:1017E00010F0A61BB70B881F991F5A95A9F7809573
:1017F0009095BC01CD010895EE0FFF1F0590F49167
:08180000E02D0994F894FFCFDC
:04180800CF01CF013C
:00000001FF
